{
  "contractName": "CrowdsaleCoin",
  "abi": [
    {
      "constant": true,
      "inputs": [],
      "name": "name",
      "outputs": [
        {
          "name": "",
          "type": "string"
        }
      ],
      "payable": false,
      "stateMutability": "view",
      "type": "function"
    },
    {
      "constant": true,
      "inputs": [],
      "name": "totalSupply",
      "outputs": [
        {
          "name": "",
          "type": "uint256"
        }
      ],
      "payable": false,
      "stateMutability": "view",
      "type": "function"
    },
    {
      "constant": true,
      "inputs": [
        {
          "name": "",
          "type": "address"
        }
      ],
      "name": "balances",
      "outputs": [
        {
          "name": "",
          "type": "uint256"
        }
      ],
      "payable": false,
      "stateMutability": "view",
      "type": "function"
    },
    {
      "constant": true,
      "inputs": [],
      "name": "decimal",
      "outputs": [
        {
          "name": "",
          "type": "uint32"
        }
      ],
      "payable": false,
      "stateMutability": "view",
      "type": "function"
    },
    {
      "constant": true,
      "inputs": [],
      "name": "symbol",
      "outputs": [
        {
          "name": "",
          "type": "string"
        }
      ],
      "payable": false,
      "stateMutability": "view",
      "type": "function"
    },
    {
      "constant": false,
      "inputs": [
        {
          "name": "newOwner",
          "type": "address"
        }
      ],
      "name": "transferOwnership",
      "outputs": [],
      "payable": false,
      "stateMutability": "nonpayable",
      "type": "function"
    },
    {
      "inputs": [
        {
          "name": "initialCoinCount",
          "type": "uint32"
        }
      ],
      "payable": false,
      "stateMutability": "nonpayable",
      "type": "constructor"
    },
    {
      "anonymous": false,
      "inputs": [
        {
          "indexed": true,
          "name": "_from",
          "type": "address"
        },
        {
          "indexed": true,
          "name": "_to",
          "type": "address"
        },
        {
          "indexed": false,
          "name": "_value",
          "type": "uint256"
        }
      ],
      "name": "Transfer",
      "type": "event"
    },
    {
      "anonymous": false,
      "inputs": [
        {
          "indexed": true,
          "name": "_owner",
          "type": "address"
        },
        {
          "indexed": true,
          "name": "_spender",
          "type": "address"
        },
        {
          "indexed": false,
          "name": "_value",
          "type": "uint256"
        }
      ],
      "name": "Approval",
      "type": "event"
    },
    {
      "constant": true,
      "inputs": [
        {
          "name": "_owner",
          "type": "address"
        }
      ],
      "name": "balanceOf",
      "outputs": [
        {
          "name": "balance",
          "type": "uint256"
        }
      ],
      "payable": false,
      "stateMutability": "view",
      "type": "function"
    },
    {
      "constant": false,
      "inputs": [
        {
          "name": "mintAddress",
          "type": "address"
        },
        {
          "name": "mintValue",
          "type": "uint256"
        }
      ],
      "name": "mint",
      "outputs": [],
      "payable": false,
      "stateMutability": "nonpayable",
      "type": "function"
    },
    {
      "constant": false,
      "inputs": [
        {
          "name": "transferAddress",
          "type": "address"
        },
        {
          "name": "transferValue",
          "type": "uint32"
        }
      ],
      "name": "transfer",
      "outputs": [
        {
          "name": "success",
          "type": "bool"
        }
      ],
      "payable": false,
      "stateMutability": "nonpayable",
      "type": "function"
    },
    {
      "constant": false,
      "inputs": [
        {
          "name": "transferAddresFrom",
          "type": "address"
        },
        {
          "name": "transferAddressTo",
          "type": "address"
        },
        {
          "name": "transferValue",
          "type": "uint32"
        }
      ],
      "name": "transferFrom",
      "outputs": [
        {
          "name": "success",
          "type": "bool"
        }
      ],
      "payable": false,
      "stateMutability": "nonpayable",
      "type": "function"
    },
    {
      "constant": false,
      "inputs": [
        {
          "name": "approveAddress",
          "type": "address"
        },
        {
          "name": "approveValue",
          "type": "uint32"
        }
      ],
      "name": "approve",
      "outputs": [
        {
          "name": "success",
          "type": "bool"
        }
      ],
      "payable": false,
      "stateMutability": "nonpayable",
      "type": "function"
    },
    {
      "constant": true,
      "inputs": [
        {
          "name": "ownerAddress",
          "type": "address"
        },
        {
          "name": "allowanceAddress",
          "type": "address"
        }
      ],
      "name": "allowance",
      "outputs": [
        {
          "name": "remaining",
          "type": "uint256"
        }
      ],
      "payable": false,
      "stateMutability": "view",
      "type": "function"
    }
  ],
  "bytecode": "0x6060604052341561000f57600080fd5b604051602080610f7383398101604052808051906020019091905050336000806101000a81548173ffffffffffffffffffffffffffffffffffffffff021916908373ffffffffffffffffffffffffffffffffffffffff16021790555060008163ffffffff16141561008157620186a090505b8063ffffffff16600181905550600154600260008060009054906101000a900473ffffffffffffffffffffffffffffffffffffffff1673ffffffffffffffffffffffffffffffffffffffff1673ffffffffffffffffffffffffffffffffffffffff1681526020019081526020016000208190555050610e6e806101056000396000f3006060604052600436106100ba576000357c0100000000000000000000000000000000000000000000000000000000900463ffffffff16806306fdde03146100bf57806318160ddd1461014d57806327e235e31461017657806340c10f19146101c357806370a082311461020557806376809ce314610252578063800974841461028757806384269ed9146102e757806395d89b4114610366578063a7e94542146103f4578063dd62ed3e14610454578063f2fde38b146104c0575b600080fd5b34156100ca57600080fd5b6100d26104f9565b6040518080602001828103825283818151815260200191508051906020019080838360005b838110156101125780820151818401526020810190506100f7565b50505050905090810190601f16801561013f5780820380516001836020036101000a031916815260200191505b509250505060405180910390f35b341561015857600080fd5b610160610532565b6040518082815260200191505060405180910390f35b341561018157600080fd5b6101ad600480803573ffffffffffffffffffffffffffffffffffffffff16906020019091905050610538565b6040518082815260200191505060405180910390f35b34156101ce57600080fd5b610203600480803573ffffffffffffffffffffffffffffffffffffffff16906020019091908035906020019091905050610550565b005b341561021057600080fd5b61023c600480803573ffffffffffffffffffffffffffffffffffffffff1690602001909190505061066b565b6040518082815260200191505060405180910390f35b341561025d57600080fd5b6102656106b4565b604051808263ffffffff1663ffffffff16815260200191505060405180910390f35b341561029257600080fd5b6102cd600480803573ffffffffffffffffffffffffffffffffffffffff1690602001909190803563ffffffff169060200190919050506106b9565b604051808215151515815260200191505060405180910390f35b34156102f257600080fd5b61034c600480803573ffffffffffffffffffffffffffffffffffffffff1690602001909190803573ffffffffffffffffffffffffffffffffffffffff1690602001909190803563ffffffff169060200190919050506108c0565b604051808215151515815260200191505060405180910390f35b341561037157600080fd5b610379610be6565b6040518080602001828103825283818151815260200191508051906020019080838360005b838110156103b957808201518184015260208101905061039e565b50505050905090810190601f1680156103e65780820380516001836020036101000a031916815260200191505b509250505060405180910390f35b34156103ff57600080fd5b61043a600480803573ffffffffffffffffffffffffffffffffffffffff1690602001909190803563ffffffff16906020019091905050610c1f565b604051808215151515815260200191505060405180910390f35b341561045f57600080fd5b6104aa600480803573ffffffffffffffffffffffffffffffffffffffff1690602001909190803573ffffffffffffffffffffffffffffffffffffffff16906020019091905050610d1d565b6040518082815260200191505060405180910390f35b34156104cb57600080fd5b6104f7600480803573ffffffffffffffffffffffffffffffffffffffff16906020019091905050610da4565b005b6040805190810160405280600e81526020017f43726f776473616c6520436f696e00000000000000000000000000000000000081525081565b60015481565b60026020528060005260406000206000915090505481565b6000809054906101000a900473ffffffffffffffffffffffffffffffffffffffff1673ffffffffffffffffffffffffffffffffffffffff163373ffffffffffffffffffffffffffffffffffffffff161415156105ab57600080fd5b60015481600154011015801561060257508081600260008573ffffffffffffffffffffffffffffffffffffffff1673ffffffffffffffffffffffffffffffffffffffff168152602001908152602001600020540110155b151561060a57fe5b80600260008473ffffffffffffffffffffffffffffffffffffffff1673ffffffffffffffffffffffffffffffffffffffff16815260200190815260200160002060008282540192505081905550806001600082825401925050819055505050565b6000600260008373ffffffffffffffffffffffffffffffffffffffff1673ffffffffffffffffffffffffffffffffffffffff168152602001908152602001600020549050919050565b601281565b60008163ffffffff16600260003373ffffffffffffffffffffffffffffffffffffffff1673ffffffffffffffffffffffffffffffffffffffff16815260200190815260200160002054101580156107965750600260008473ffffffffffffffffffffffffffffffffffffffff1673ffffffffffffffffffffffffffffffffffffffff168152602001908152602001600020548263ffffffff16600260008673ffffffffffffffffffffffffffffffffffffffff1673ffffffffffffffffffffffffffffffffffffffff168152602001908152602001600020540110155b156108b5578163ffffffff16600260003373ffffffffffffffffffffffffffffffffffffffff1673ffffffffffffffffffffffffffffffffffffffff168152602001908152602001600020600082825403925050819055508163ffffffff16600260008573ffffffffffffffffffffffffffffffffffffffff1673ffffffffffffffffffffffffffffffffffffffff168152602001908152602001600020600082825401925050819055508273ffffffffffffffffffffffffffffffffffffffff163373ffffffffffffffffffffffffffffffffffffffff167fddf252ad1be2c89b69c2b068fc378daa952ba7f163c4a11628f55a4df523b3ef84604051808263ffffffff16815260200191505060405180910390a3600190506108ba565b600090505b92915050565b60008163ffffffff16600360008673ffffffffffffffffffffffffffffffffffffffff1673ffffffffffffffffffffffffffffffffffffffff16815260200190815260200160002060003373ffffffffffffffffffffffffffffffffffffffff1673ffffffffffffffffffffffffffffffffffffffff168152602001908152602001600020541015801561099957508163ffffffff16600260003373ffffffffffffffffffffffffffffffffffffffff1673ffffffffffffffffffffffffffffffffffffffff1681526020019081526020016000205410155b8015610a2b5750600260008473ffffffffffffffffffffffffffffffffffffffff1673ffffffffffffffffffffffffffffffffffffffff168152602001908152602001600020548263ffffffff16600260008673ffffffffffffffffffffffffffffffffffffffff1673ffffffffffffffffffffffffffffffffffffffff168152602001908152602001600020540110155b15610bda578163ffffffff16600360008673ffffffffffffffffffffffffffffffffffffffff1673ffffffffffffffffffffffffffffffffffffffff16815260200190815260200160002060003373ffffffffffffffffffffffffffffffffffffffff1673ffffffffffffffffffffffffffffffffffffffff168152602001908152602001600020600082825403925050819055508163ffffffff16600260008673ffffffffffffffffffffffffffffffffffffffff1673ffffffffffffffffffffffffffffffffffffffff168152602001908152602001600020600082825403925050819055508163ffffffff16600260008573ffffffffffffffffffffffffffffffffffffffff1673ffffffffffffffffffffffffffffffffffffffff168152602001908152602001600020600082825401925050819055508273ffffffffffffffffffffffffffffffffffffffff168473ffffffffffffffffffffffffffffffffffffffff167fddf252ad1be2c89b69c2b068fc378daa952ba7f163c4a11628f55a4df523b3ef84604051808263ffffffff16815260200191505060405180910390a360019050610bdf565b600090505b9392505050565b6040805190810160405280600581526020017f43436f696e00000000000000000000000000000000000000000000000000000081525081565b60008163ffffffff16600360003373ffffffffffffffffffffffffffffffffffffffff1673ffffffffffffffffffffffffffffffffffffffff16815260200190815260200160002060008573ffffffffffffffffffffffffffffffffffffffff1673ffffffffffffffffffffffffffffffffffffffff168152602001908152602001600020819055508273ffffffffffffffffffffffffffffffffffffffff163373ffffffffffffffffffffffffffffffffffffffff167f8c5be1e5ebec7d5bd14f71427d1e84f3dd0314c0f7b2291e5b200ac8c7c3b92584604051808263ffffffff16815260200191505060405180910390a36001905092915050565b6000600360008473ffffffffffffffffffffffffffffffffffffffff1673ffffffffffffffffffffffffffffffffffffffff16815260200190815260200160002060008373ffffffffffffffffffffffffffffffffffffffff1673ffffffffffffffffffffffffffffffffffffffff16815260200190815260200160002054905092915050565b6000809054906101000a900473ffffffffffffffffffffffffffffffffffffffff1673ffffffffffffffffffffffffffffffffffffffff163373ffffffffffffffffffffffffffffffffffffffff16141515610dff57600080fd5b806000806101000a81548173ffffffffffffffffffffffffffffffffffffffff021916908373ffffffffffffffffffffffffffffffffffffffff160217905550505600a165627a7a7230582020870823fa7655e99e1709c570fcc2553b51fee9d60af40f09fd1f570c323dd90029",
  "source": "pragma solidity ^0.4.19;\n\nimport \"./Ownable.sol\";\n\n/**\n * The CrowdsaleCoin contract does this and that...\n */\ncontract CrowdsaleCoin is Ownable {\n\n\tstring public constant name = \"Crowdsale Coin\";\n\tstring public constant symbol = \"CCoin\";\n\tuint32 public constant decimal = 18;\n\n\tuint public totalSupply;\n\n\tmapping (address => uint) public balances;\n\tmapping (address => mapping (address => uint)) allowed;\n\n\tevent Transfer(address indexed _from, address indexed _to, uint _value);\n    event Approval(address indexed _owner, address indexed _spender, uint _value);\n\n\tfunction CrowdsaleCoin (uint32 initialCoinCount) public {\n\t\tif (initialCoinCount == 0) initialCoinCount = 100000;\n\n\t\ttotalSupply = initialCoinCount;\n\t\tbalances[owner] = totalSupply;\n\t}\t\n\n\tfunction balanceOf (address _owner) public constant returns(uint balance) {\n\t\treturn balances[_owner];\t\n\t}\n\n\tfunction mint(address mintAddress, uint mintValue) public onlyOwner {\n\t\tassert(totalSupply + mintValue >= totalSupply && balances[mintAddress] + mintValue >= mintValue);\n\t\tbalances[mintAddress] += mintValue;\n      \ttotalSupply += mintValue;\n\t}\n\t\n\tfunction transfer (address transferAddress, uint32 transferValue) public returns(bool success) {\n\t\tif(balances[msg.sender] >= transferValue && balances[transferAddress] + transferValue >= balances[transferAddress]) {\n\t        balances[msg.sender] -= transferValue; \n\t        balances[transferAddress] += transferValue;\n\t        Transfer(msg.sender, transferAddress, transferValue);\n\t        return true;\n        }\n\n        return false;\n\t}\n\n\tfunction transferFrom(address transferAddresFrom, address transferAddressTo, uint32 transferValue) public returns (bool success) {\n    \tif(allowed[transferAddresFrom][msg.sender] >= transferValue && balances[msg.sender] >= transferValue && balances[transferAddressTo] + transferValue >= balances[transferAddressTo]) {\n    \t\tallowed[transferAddresFrom][msg.sender] -= transferValue;\n\t    \tbalances[transferAddresFrom] -= transferValue; \n\t        balances[transferAddressTo] += transferValue;\n\t        Transfer(transferAddresFrom, transferAddressTo, transferValue);\n\t        return true; \n\t    }\n\n    \treturn false;\n    }\n    \n    function approve(address approveAddress, uint32 approveValue) public returns (bool success) {\n    \tallowed[msg.sender][approveAddress] = approveValue;\n        Approval(msg.sender, approveAddress, approveValue);\n        return true;\n    }\n    \n    function allowance(address ownerAddress, address allowanceAddress) public constant returns (uint remaining) {\n        return allowed[ownerAddress][allowanceAddress];\n    }\n\t\n}\n\n\n",
  "sourcePath": "/Users/irene/Documents/truffle/presale/contracts/CrowdsaleCoin.sol",
  "compiler": {
    "name": "solc",
    "version": "0.4.19+commit.c4cbbb05.Emscripten.clang"
  },
  "schemaVersion": "1.0.1",
  "updatedAt": "2018-03-30T13:31:05.765Z"
}