{
  "contractName": "Crowdsale",
  "abi": [
    {
      "constant": true,
      "inputs": [],
      "name": "wallet",
      "outputs": [
        {
          "name": "",
          "type": "address"
        }
      ],
      "payable": false,
      "stateMutability": "view",
      "type": "function"
    },
    {
      "constant": true,
      "inputs": [],
      "name": "hardcap",
      "outputs": [
        {
          "name": "",
          "type": "uint256"
        }
      ],
      "payable": false,
      "stateMutability": "view",
      "type": "function"
    },
    {
      "constant": true,
      "inputs": [],
      "name": "start",
      "outputs": [
        {
          "name": "",
          "type": "uint256"
        }
      ],
      "payable": false,
      "stateMutability": "view",
      "type": "function"
    },
    {
      "constant": true,
      "inputs": [],
      "name": "period",
      "outputs": [
        {
          "name": "",
          "type": "uint256"
        }
      ],
      "payable": false,
      "stateMutability": "view",
      "type": "function"
    },
    {
      "constant": true,
      "inputs": [],
      "name": "token",
      "outputs": [
        {
          "name": "",
          "type": "address"
        }
      ],
      "payable": false,
      "stateMutability": "view",
      "type": "function"
    },
    {
      "inputs": [
        {
          "name": "_token",
          "type": "address"
        },
        {
          "name": "_wallet",
          "type": "address"
        },
        {
          "name": "_start",
          "type": "uint256"
        },
        {
          "name": "_period",
          "type": "uint256"
        },
        {
          "name": "_hardcap",
          "type": "uint256"
        }
      ],
      "payable": false,
      "stateMutability": "nonpayable",
      "type": "constructor"
    },
    {
      "payable": true,
      "stateMutability": "payable",
      "type": "fallback"
    }
  ],
  "bytecode": "0x6060604052341561000f57600080fd5b60405160a08061066f8339810160405280805190602001909190805190602001909190805190602001909190805190602001909190805190602001909190505084600460006101000a81548173ffffffffffffffffffffffffffffffffffffffff021916908373ffffffffffffffffffffffffffffffffffffffff16021790555083600360006101000a81548173ffffffffffffffffffffffffffffffffffffffff021916908373ffffffffffffffffffffffffffffffffffffffff1602179055508260008190555081600181905550806002819055505050505050610575806100fa6000396000f30060606040526004361061006d576000357c0100000000000000000000000000000000000000000000000000000000900463ffffffff168063521eb27314610077578063b071cbe6146100cc578063be9a6555146100f5578063ef78d4fd1461011e578063fc0c546a14610147575b61007561019c565b005b341561008257600080fd5b61008a61049d565b604051808273ffffffffffffffffffffffffffffffffffffffff1673ffffffffffffffffffffffffffffffffffffffff16815260200191505060405180910390f35b34156100d757600080fd5b6100df6104c3565b6040518082815260200191505060405180910390f35b341561010057600080fd5b6101086104c9565b6040518082815260200191505060405180910390f35b341561012957600080fd5b6101316104cf565b6040518082815260200191505060405180910390f35b341561015257600080fd5b61015a6104d5565b604051808273ffffffffffffffffffffffffffffffffffffffff1673ffffffffffffffffffffffffffffffffffffffff16815260200191505060405180910390f35b6000600254600360009054906101000a900473ffffffffffffffffffffffffffffffffffffffff1673ffffffffffffffffffffffffffffffffffffffff1631111515156101e857600080fd5b60005442118015610203575062015180600154026000540142105b151561020e57600080fd5b600360009054906101000a900473ffffffffffffffffffffffffffffffffffffffff1673ffffffffffffffffffffffffffffffffffffffff166108fc349081150290604051600060405180830381858888f19350505050151561027057600080fd5b61029f670de0b6b3a7640000610291346169786104fb90919063ffffffff16565b61052e90919063ffffffff16565b90506102bc6004620151806001540261052e90919063ffffffff16565b600054014210156102d357616978810190506103c2565b6102ee6004620151806001540261052e90919063ffffffff16565b600054014210158015610331575061032a600261031c6004620151806001540261052e90919063ffffffff16565b6104fb90919063ffffffff16565b6000540142105b1561034257616784810190506103c1565b61037060026103626004620151806001540261052e90919063ffffffff16565b6104fb90919063ffffffff16565b6000540142101580156103b357506103ac600361039e6004620151806001540261052e90919063ffffffff16565b6104fb90919063ffffffff16565b6000540142105b156103c057616590810190505b5b5b600460009054906101000a900473ffffffffffffffffffffffffffffffffffffffff1673ffffffffffffffffffffffffffffffffffffffff166340c10f1933836040518363ffffffff167c0100000000000000000000000000000000000000000000000000000000028152600401808373ffffffffffffffffffffffffffffffffffffffff1673ffffffffffffffffffffffffffffffffffffffff16815260200182815260200192505050600060405180830381600087803b151561048657600080fd5b6102c65a03f1151561049757600080fd5b50505050565b600360009054906101000a900473ffffffffffffffffffffffffffffffffffffffff1681565b60025481565b60005481565b60015481565b600460009054906101000a900473ffffffffffffffffffffffffffffffffffffffff1681565b6000808284029050600084148061051c575082848281151561051957fe5b04145b151561052457fe5b8091505092915050565b600080828481151561053c57fe5b04905080915050929150505600a165627a7a72305820e3efd97e8e390ea2e62d5bfa62965660a234282fe64d15b1d8e5a38fb7025c240029",
  "source": "pragma solidity ^0.4.19;\n\nimport \"./SafeMath.sol\";\nimport \"./CrowdsaleCoin.sol\";\n\ncontract Crowdsale {\n\n    using SafeMath for uint256;\n\n\tuint private constant rate = 27000;\n\tuint private constant bonus1Rate = 27000;\n\tuint private constant bonus2Rate = 26500;\n\tuint private constant bonus3Rate = 26000;\n\n\tuint public start;\n    uint public period;\n    uint public hardcap;\n\n\taddress public wallet;\n    CrowdsaleCoin public token;\n\n\tfunction Crowdsale (address _token, address _wallet, uint _start,  uint _period, uint _hardcap) public {\n\t\ttoken = CrowdsaleCoin(_token);\n\t\twallet = _wallet;\n\t\tstart = _start;\n\t\tperiod = _period;\n\t\thardcap = _hardcap;\n\t}\t\n\n\tmodifier saleIsOn() {\n    \trequire(now > start && now < start + period * 1 days);\n    \t_;\n    }\n\n    modifier isUnderHardCap() {\n        require(wallet.balance <= hardcap);\n        _;\n    }\n\n    function() external payable {\n        saleTokens();\n    }\n\n    function saleTokens () internal isUnderHardCap saleIsOn {\n    \twallet.transfer(msg.value);\n    \tuint tokens = rate.mul(msg.value).div(1 ether);\n    \t\n    \tif(now < start + (period * 1 days).div(4)) {\n          tokens += bonus1Rate;\n        } else if(now >= start + (period * 1 days).div(4) && now < start + (period * 1 days).div(4).mul(2)) {\n          tokens += bonus2Rate;\n        } else if(now >= start + (period * 1 days).div(4).mul(2) && now < start + (period * 1 days).div(4).mul(3)) {\n          tokens += bonus3Rate;\n        }\n\n    \ttoken.mint(msg.sender, tokens);\n    }\n}\n\n",
  "sourcePath": "/Users/irene/Documents/truffle/presale/contracts/Crowdsale.sol",
  "compiler": {
    "name": "solc",
    "version": "0.4.19+commit.c4cbbb05.Emscripten.clang"
  },
  "schemaVersion": "1.0.1",
  "updatedAt": "2018-03-30T13:31:05.763Z"
}