{
  "contractName": "Ownable",
  "abi": [
    {
      "inputs": [],
      "payable": false,
      "stateMutability": "nonpayable",
      "type": "constructor"
    },
    {
      "constant": false,
      "inputs": [
        {
          "name": "newOwner",
          "type": "address"
        }
      ],
      "name": "transferOwnership",
      "outputs": [],
      "payable": false,
      "stateMutability": "nonpayable",
      "type": "function"
    }
  ],
  "bytecode": "0x6060604052341561000f57600080fd5b336000806101000a81548173ffffffffffffffffffffffffffffffffffffffff021916908373ffffffffffffffffffffffffffffffffffffffff1602179055506101498061005e6000396000f300606060405260043610610041576000357c0100000000000000000000000000000000000000000000000000000000900463ffffffff168063f2fde38b14610046575b600080fd5b341561005157600080fd5b61007d600480803573ffffffffffffffffffffffffffffffffffffffff1690602001909190505061007f565b005b6000809054906101000a900473ffffffffffffffffffffffffffffffffffffffff1673ffffffffffffffffffffffffffffffffffffffff163373ffffffffffffffffffffffffffffffffffffffff161415156100da57600080fd5b806000806101000a81548173ffffffffffffffffffffffffffffffffffffffff021916908373ffffffffffffffffffffffffffffffffffffffff160217905550505600a165627a7a723058200326f6d72c3ae5cf32e9d91db4be9facd6b9ea3385d1e1fb7d10373bba8fbc870029",
  "source": "pragma solidity ^0.4.19;\n\ncontract Ownable {\n\n\taddress owner;\n\n\tfunction Ownable () public {\n\t\towner = msg.sender;\n\t}\t\n\n\tmodifier onlyOwner() { \n\t\trequire( msg.sender == owner); \n\t\t_; \n\t}\n\n\tfunction transferOwnership(address newOwner) public onlyOwner {\n\t\towner = newOwner;\n\t}\n\t\n}\n",
  "sourcePath": "/Users/irene/Documents/truffle/presale/contracts/Ownable.sol",
  "compiler": {
    "name": "solc",
    "version": "0.4.19+commit.c4cbbb05.Emscripten.clang"
  },
  "schemaVersion": "1.0.1",
  "updatedAt": "2018-03-30T13:31:05.766Z"
}